:100000000C945E000C9486000C9486000C94860080
:100010000C9486000C9486000C9486000C94790451
:100020000C9486000C9486000C9486000C94860038
:100030000C9486000C9486000C9486000C94860028
:100040000C94D5040C9486000C9486000C948600C5
:100050000C9486000C9486000C9486000C94860008
:100060000C941F050C94860000000008000201009B
:100070000003040700000000000000000200000070
:1000800000250028002B0000000000240027002A83
:100090000004040404040404040202020202020331
:1000A000030303030301020408102040800102043B
:1000B000081020010204081020004D0611241FBE64
:1000C000CFEFD8E0DEBFCDBF11E0A0E0B1E0E8E6C1
:1000D000F5E102C005900D92AE37B107D9F722E0E5
:1000E000AEE7B1E001C01D92A338B207E1F710E01E
:1000F000CEE5D0E004C02197FE010E94A70ACD35CD
:10010000D107C9F70E946C060C94B20A0C94000047
:1001100090E0FC01EB55FF4F2491FC01EF56FF4F9F
:100120008491882399F090E0880F991FFC01E9578A
:10013000FF4FA591B491FC01E358FF4F8591949135
:100140008FB7F894EC91E22BEC938FBF0895209138
:100150004F0290914E02213208F04AC080912B024A
:100160008111FCCF32E030932B0231E030932A0230
:100170003FEF309329021092280220932702AEE22B
:10018000B2E047E052E0FA013E2F341B321718F478
:100190003D913193F9CF1092060220910602990FFA
:1001A000922B9093060290910502913061F4109287
:1001B0000502909106029093BB009091BC0093FDC4
:1001C000F8CF95EC01C095EE9093BC0090912B0276
:1001D0009230E1F3909129029F3F79F080912902BA
:1001E000803241F080912902803331F084E005C0F3
:1001F00081E003C082E001C083E010922D021092E2
:100200004F0210922C020895CF92DF92EF92FF924C
:100210000F931F93CF93DF936C017A018B01C0E0A2
:10022000D0E0CE15DF0589F0D8016D918D01D601A2
:10023000ED91FC910190F081E02DC6010995892B8B
:1002400011F47E0102C02196ECCFC701DF91CF915E
:100250001F910F91FF90EF90DF90CF90089590E065
:10026000FC01E859FF4F3491FC01EB55FF4F2491FD
:10027000FC01EF56FF4FE491EE2309F43BC033231A
:1002800039F1333091F038F43130A9F0323001F5E2
:1002900084B58F7D12C0373091F03830A1F0343002
:1002A000B9F4809180008F7D03C0809180008F77AA
:1002B000809380000DC084B58F7784BD09C0809184
:1002C000B0008F7703C08091B0008F7D8093B00025
:1002D000F0E0EE0FFF1FE358FF4FA591B4918FB7E9
:1002E000F894EC91611103C020952E2301C02E2BB0
:1002F0002C938FBF089590910001981324C0ECE7D0
:10030000F0E0E4919FEF90930001E130B9F098F0B4
:10031000E230C9F4909170009D7F9093700091E05D
:100320009093B0009091B100987F94609093B10049
:100330001092B30008C010926E0005C090916F003B
:100340009D7F90936F0060E00C942F013FB7F8946D
:100350008091EA019091EB01A091EC01B091ED0147
:1003600026B5A89B05C02F3F19F00196A11DB11D10
:100370003FBFBA2FA92F982F8827820F911DA11D4B
:10038000B11DBC01CD0142E0660F771F881F991F88
:100390004A95D1F70895FC01908190539A3008F066
:1003A00090E0818180532AE0929F800D112408956E
:1003B00085ED8093BC008091BC0084FDFCCF109241
:1003C0002B0208954091A001262F30E0240F311D0B
:1003D00021323105DCF420912B022430C9F4FC01D8
:1003E00080E090E0861758F43091A0012191DC0163
:1003F000A258BE4FA30FB11D2C930196F3CF80914D
:10040000A001680F6093A00180E0089581E0089545
:1004100082E0089510922B0281E080932A021092CC
:10042000050261E082E10E942F0161E083E10E9408
:100430002F01E9EBF0E080818E7F808380818D7FCA
:10044000808388E48093B80085E48093BC0008959D
:100450000895E091EF018091EE01E81730F4F0E0AB
:10046000EB53FE4F808190E008958FEF9FEF08954A
:100470009091EF018091EE01981750F4E92FF0E090
:10048000EB53FE4F208130E09F5F9093EF0102C05D
:100490002FEF3FEFC90108958091EE0190E0209188
:1004A000EF01821B91090895CF92DF92EF92FF92A4
:1004B0000F931F93CF93DF937C01262F972F8A01F1
:1004C00080912C02882391F0C62FD72F6E01C40E85
:1004D000D51ECC15DD0571F06991D701ED91FC9128
:1004E0000190F081E02DC7010995F3CF642F822F91
:1004F0000E94E201C801DF91CF911F910F91FF90FF
:10050000EF90DF90CF900895CF93DF931F92CDB7F8
:10051000DEB7698320912C022223D1F020914F0273
:10052000203240F021E030E0FC013383228380E080
:1005300090E015C080912D02E82FF0E0E25DFD4FC4
:10054000998190838F5F80932D0280934F0205C025
:1005500061E0CE0101960E94E20181E090E00F90FF
:10056000DF91CF910895089580E090E008952F9253
:100570003F924F925F926F927F928F929F92AF9233
:10058000BF92CF92DF92EF92FF920F931F93CF9380
:10059000DF9300D01F92CDB7DEB76B017C0149839A
:1005A0008DB79EB79B838A8380907302E82DF0E01D
:1005B0005F0191E0A91AB1088DB79EB78E1B9F0B02
:1005C0000FB6F8949EBF0FBE8DBF0DB71EB70F5F5D
:1005D0001F4FEE0FFF1FEE0FFF1FDF01A55DBE4F88
:1005E0004D915D916D917C91E15DFE4F8081918196
:1005F000A281B381C816D906EA06FB0624F0902F23
:10060000F80125E20EC081E090E0A0E0B0E0841B9C
:10061000950BA60BB70BC816D906EA06FB067CF3AA
:1006200012C08E2F891B881528F42193FACF8A30A7
:1006300008F05CC0D80120E030E09981A91AB10827
:1006400097FDB39463C0F7FE0EC085E2F801808386
:10065000F094E094D094C094C11CD11CE11CF11C16
:100660009924939401C0912C981428F5692C712C2D
:10067000F501E619F709EE0FFF1FEE0FFF1FE15D11
:10068000FE4F2080318042805380C701B601A20115
:1006900091010E94400AF801E60DF71D2083A22F68
:1006A000B0E0A20191010E945F0AC61AD70AE80AC7
:1006B000F90A9394D9CF809162028111BBCF20E0D7
:1006C00064E2822F90E0398137FD30E0A501431BC1
:1006D000510937FD5395841795070CF0ABCFF801FE
:1006E000E80FF91F80818111A2CF60832F5FE9CFCE
:1006F000ED91F0E0E75FFE4F8081F901E45AFD4F94
:10070000498147FF06C0818F2F5F3F4F281580F337
:1007100005C02A153B05B9F78068F5CF8A819B8112
:100720000FB6F8949EBF0FBE8DBF0F900F900F9025
:10073000DF91CF911F910F91FF90EF90DF90CF90BD
:10074000BF90AF909F908F907F906F905F904F90F1
:100750003F902F9008950E94AD0ACF92DF92EF92C2
:10076000FF920F931F93CF93DF93EC0181E080936F
:100770002C0288E680934E0210922D0210924F02B6
:1007800060E080E592E00E9484020E94A7008091D0
:100790002B028111FCCF81E080932B0280932A02EF
:1007A0009FEF909329021092280296E090932702DF
:1007B0008093060280910602806D809306028091EC
:1007C0000502813061F41092050280910602809347
:1007D000BB008091BC0083FDF8CF85EC01C085EEA5
:1007E0008093BC0080912B028130E1F3809128023C
:1007F000873018F48091280201C087E0A7E0B2E0BA
:1008000025EC31E0F9019E2F921B981718F49D9169
:100810009193F9CF1092EF018093EE0180E592E081
:100820000E9438028F77982F92959F701AEF082FA9
:10083000919F000D112480E592E00E9438029C01F6
:10084000332794E0359527959A95E1F7F82E129F76
:10085000F00C112480E592E00E9438029C013327BD
:1008600044E0359527954A95E1F7E82E129FE00C74
:10087000112480E592E00E94380280E592E00E9417
:1008800038029C01332754E0359527955A95E1F7B6
:10089000D82E129FD00C112480E592E00E943802DD
:1008A0009C01332764E0359527956A95E1F7C82EBA
:1008B000129FC00C112480E592E00E9438029C0136
:1008C000332774E0359527957A95E1F7129F800DCF
:1008D00011248883C982DA82EB82FC820D83CE01E7
:1008E000DF91CF911F910F91FF90EF90DF90CF900C
:1008F00008951F920F920FB60F9211242F933F93DA
:100900004F935F936F937F938F939F93AF93BF9317
:10091000EF93FF938091F9019091FA01A091FB016F
:10092000B091FC01892B8A2B8B2B51F18091F00126
:10093000E091F101F091F20190818927808380910B
:10094000F9019091FA01A091FB01B091FC011816F8
:1009500019061A061B06C4F48091F9019091FA0158
:10096000A091FB01B091FC010197A109B10980930D
:10097000F9019093FA01A093FB01B093FC0104C02C
:10098000809100010E947B01FF91EF91BF91AF9197
:100990009F918F917F916F915F914F913F912F9197
:1009A0000F900FBE0F901F9018951F920F920FB6C9
:1009B0000F9211242F933F938F939F93AF93BF93E5
:1009C0008091E6019091E701A091E801B091E901E1
:1009D0003091E50123E0230F2D3720F40196A11D6E
:1009E000B11D05C026E8230F0296A11DB11D20935D
:1009F000E5018093E6019093E701A093E801B093AD
:100A0000E9018091EA019091EB01A091EC01B09194
:100A1000ED010196A11DB11D8093EA019093EB01B8
:100A2000A093EC01B093ED01BF91AF919F918F9195
:100A30003F912F910F900FBE0F901F9018951F920E
:100A40000F920FB60F9211242F933F934F935F9302
:100A50006F937F938F939F93AF93BF93EF93FF9386
:100A60008091B900887F803609F49CC068F588328F
:100A700009F45BC090F4803109F454C038F4882341
:100A800009F4F6C0883009F44DC0F6C0883109F485
:100A90004CC0803209F45DC0EFC0803409F468C0F6
:100AA00048F4803309F455C0883309F0E5C08093D9
:100AB0002902D8C0803509F44FC0883509F45DC0DB
:100AC000883409F0D9C0D6C0883909F4C7C0A8F461
:100AD000883709F467C038F4883609F463C0803772
:100AE00009F460C0C9C0883809F4B8C0803909F475
:100AF0005FC0803809F0C0C05BC0803B09F486C08D
:100B000038F4803A09F466C0883A09F47FC0B4C06A
:100B1000803C09F4A7C0883C09F4A4C0883B09F4D0
:100B20008AC0AAC08091060210C0909128028091CC
:100B30002702981770F5E091280281E08E0F8093CC
:100B40002802F0E0E95FFD4F80818093BB0085ECD7
:100B500086C0809329028EC0E091280281E08E0F2A
:100B6000809328028091BB00F0E0E95FFD4F808315
:100B700090912802809127026EC0E091280281E0C6
:100B80008E0F809328028091BB00F0E0E95FFD4F5B
:100B9000808380912A0281116DC081E080930502DB
:100BA00084EA61C083E080932B021092C401CFCF0E
:100BB0008091C401803208F051C0E091C40181E00D
:100BC0008E0F8093C4018091BB00F0E0EC55FE4F86
:100BD0008083BDCF85EC8093BC0010922B02809166
:100BE000C401803230F4E091C401F0E0EC55FE4FD6
:100BF00010826091C40170E0E091A201F091A30124
:100C000084EA91E009951092C40136C084E0809393
:100C10002B021092A1011092A001E0919E01F0918F
:100C20009F0109958091A001811105C081E0809309
:100C3000A00110927E01E091A10181E08E0F8093CE
:100C4000A101F0E0E258FE4F80818093BB009091BB
:100C5000A1018091A001981708F479CF85E88093CD
:100C6000BC000AC085EC8093BC0010922B0204C02B
:100C7000109229020E94D801FF91EF91BF91AF918C
:100C80009F918F917F916F915F914F913F912F91A4
:100C90000F900FBE0F901F901895E0E5F2E01382C1
:100CA000128288EE93E0A0E0B0E084839583A6836F
:100CB000B7838BE591E091838083ECE5F2E080EDF2
:100CC00097E092A381A3178A108E13A214A215A2F3
:100CD00016A2148215820895CF93DF93CDB7DEB7A5
:100CE00062970FB6F894DEBF0FBECDBF789484B57F
:100CF000826084BD84B5816084BD85B5826085BD18
:100D000085B5816085BD80916E00816080936E00A5
:100D10001092810080918100826080938100809197
:100D20008100816080938100809180008160809348
:100D300080008091B10084608093B1008091B00008
:100D400081608093B00080917A00846080937A0003
:100D500080917A00826080937A0080917A0081602D
:100D600080937A0080917A00806880937A00109254
:100D7000C1001092EF011092EE0110922D0210921C
:100D80004F020E940A020E940A0282E791E00E943A
:100D9000CB01182F8DE691E00E94CB01E82E85E76C
:100DA00091E00E94CB01D82E88E791E00E94CB0110
:100DB000C82E8BE791E00E94CB01B82E01E0009392
:100DC0002C0288E680934E0260E080E592E00E946B
:100DD00084029AE0F92E8B2D6F2D0E949B0A482FDA
:100DE000880F480F440F642F6B0D80E592E00E943E
:100DF00084028C2D6F2D0E949B0A382F880F380F8C
:100E0000330F632F6C0D80E592E00E9484028D2DDC
:100E10006F2D0E949B0A282F880F280F220F622F08
:100E20006D0D80E592E00E94840260E080E592E032
:100E30000E9484028E2D6F2D0E949B0A982F880F8E
:100E4000980F990F692F6E0D80E592E00E94840241
:100E500069E080E592E00E948402812F6F2D0E945C
:100E60009B0A682F660F680F660F610F80E592E09E
:100E70000E9484020E94A70082E0898783E08A871B
:100E800084E08B8795E09C8798E0E1E0F1E09E01AB
:100E90002F5F3F4F6901D90101900D929A95E1F7BB
:100EA00010926002009361020093620280937302C9
:100EB00000935C0210925E0210925D0200935F024A
:100EC000ABE6B2E0F90188E0820F91919D938E1319
:100ED000FCCF8985809363028A85809364028B8529
:100EE000809365028C858093660210E08091730286
:100EF000181788F4812F90E0FC01E45AFD4F7F0120
:100F000087810E94880060915D02F70187810E94BD
:100F10002F011F5FEBCF0BE612E028E0200F298B9B
:100F20007801F80181918F010E94880060915F0231
:100F3000F70180810E942F0129892013F1CF40E021
:100F400060E070E0CB010E94B70288EC90E09093E3
:100F50007E0280937D028EE00E9488001FE9212E90
:100F600010E0312E0BEC802E07E0902E44244A94A2
:100F7000542C3201CE0109960E94AD038E858B332D
:100F800009F0C9C064EFE62EFF24F3941DE48091BC
:100F900000018E3021F4ECE7F0E0049175C08F3F42
:100FA00009F0ABC08EE080930001ECE7F0E0049123
:100FB0000F3F09F4A2C0013009F1023009F441C029
:100FC000011162C014BC15BC84B5826084BD85B5B6
:100FD000816085BDF1018491E82FF0E0EE0FFF1FE5
:100FE000E358FF4F859194919093F8018093F70116
:100FF000E3EBF0E084918093F60148C0109280000A
:10100000109281008091810088608093810080919E
:101010008100816080938100F1018491E82FF0E0EC
:10102000EE0FFF1FE358FF4F859194919093F501C8
:101030008093F401E3EBF0E084918093F30101E00D
:1010400025C01092B0001092B1008091B000826073
:101050008093B0008091B10081608093B100F10174
:101060008491E82FF0E0EE0FFF1FE358FF4F8591CA
:1010700094919093F2018093F101E3EBF0E084917D
:101080008093F00102E002C007FD37C08EE00E94AD
:101090008800002309F4DAC1023009F4EAC1013002
:1010A000D1F480918100887F83608093810081EEFC
:1010B00094E090938900809388004092FD015092C3
:1010C000FE016092FF017092000280916F008260C9
:1010D00080936F0012C081EE023079F48093B300E8
:1010E0004092F9015092FA016092FB017092FC016A
:1010F00080917000826080937000C4010197F1F7C5
:101100008EE00E947B01C4010197F1F7F1E0EF1A34
:10111000F10809F03CCFC6010E94AD038D816E81BC
:1011200070E024E6829F600D711D1124072E000CD3
:10113000880B990B42E00E94B702809161028111F5
:10114000CDC00E94A60100917F02109180022091E3
:10115000810230918202AB01BC01401B510B620B3A
:10116000730B80917D0290917E02092E000CAA0BD8
:10117000BB0B481759076A077B0740F480E090E0F3
:10118000892B09F4F7CE0E940000F4CE0E94A6013C
:1011900060937F0270938002809381029093820219
:1011A0008091600281114FC010E080917302181786
:1011B00058F4E12FF0E0E45AFD4F60915D02878121
:1011C0000E942F011F5FF1CFE0917402F0E0E45A1A
:1011D000FD4F60915F0287850E942F01809174020C
:1011E0008F5F883018F48093740202C010927402EA
:1011F00010917402E12FF0E0E45AFD4F60915E021D
:1012000087850E942F0181E090E0FC0102C0EE0F73
:10121000FF1F1A95E2F78F01F12C80917302F816E7
:1012200008F0ACCFEF2DF0E0E45AFD4F818D90E057
:1012300080239123892B29F060915C0287810E9491
:101240002F01F394EACF0BE612E060915F02F80100
:1012500081918F010E942F0129892013F6CFE091FF
:101260007402F0E0E45AFD4F60915D0287810E94B4
:101270002F01809174028F5F8093740290917302AA
:10128000891710F0109274020091740210E0045A51
:101290001D4F60915C02F80187810E942F01E12CB3
:1012A000F12C075E1F4FF801808190E00E2C02C0E8
:1012B000959587950A94E2F780FF08C060915E02D9
:1012C000F701E45AFD4F87850E942F01FFEFEF1AC7
:1012D000FF0A28E0E216F10431F750CF8091600256
:1012E00081115EC05BE6E52E52E0F52E00E010E0D5
:1012F000F88AEF8660915E02F70180810E942F01DB
:10130000AA24A394B12C002E02C0AA0CBB1C0A94E0
:10131000E2F790E080917302981798F4E92FF0E0DB
:10132000E45AFD4F218D30E02A213B21232B39F057
:1013300060915C0287819A8B0E942F019A899F5F3E
:10134000E9CF80917D0290917E028230910538F044
:10135000880F991F880F991F05970197F1F7B12CF6
:1013600080917302B81658F4EB2DF0E0E45AFD4F6B
:1013700060915D0287810E942F01B394F1CFFFEF4E
:10138000EF1AFF0A60915F02EF85F88980810E9461
:101390002F010F5F1F4F0830110509F0A9CFEECEC6
:1013A000B12C80917302B81608F0E8CE0B2D10E036
:1013B000045A1D4F60915C02F80187810E942F0141
:1013C000E12CF12C9801275E3F4F388B2F87EF855A
:1013D000F889808190E00E2C02C0959587950A943B
:1013E000E2F780FF08C060915E02F701E45AFD4F0A
:1013F00087850E942F01FFEFEF1AFF0A28E0E2160F
:10140000F10429F780917D0290917E02823091054E
:1014100038F0880F991F880F991F05970197F1F7EA
:101420008BE6E82E82E0F82E60915F02F701819151
:101430007F010E942F0129892E11F6CF60915D0254
:10144000F80187810E942F01B394ABCF85B5887FC7
:10145000856085BD17BD40920102509202026092E4
:1014600003027092040280916E00826080936E008D
:1014700044CE8091B10087608093B1008DE42ECE80
:10148000052E97FB1EF400940E94570A57FD07D0C3
:101490000E946A0A07FC03D04EF40C94570A509538
:1014A0004095309521953F4F4F4F5F4F0895909550
:1014B0008095709561957F4F8F4F9F4F08950E9443
:1014C0008C0AA59F900DB49F900DA49F800D911D37
:1014D00011240895A1E21A2EAA1BBB1BFD010DC009
:1014E000AA1FBB1FEE1FFF1FA217B307E407F507D4
:1014F00020F0A21BB30BE40BF50B661F771F881FB0
:10150000991F1A9469F760957095809590959B0145
:10151000AC01BD01CF010895A29FB001B39FC001EE
:10152000A39F700D811D1124911DB29F700D811D0F
:101530001124911D0895991B79E004C0991F9617F5
:1015400008F0961B881F7A95C9F780950895EE0FCD
:10155000FF1F0590F491E02D099481E090E0F8944C
:081560000C94B20AF894FFCFCD
:10156800FF060708090A0B0C0D3F065B4F666D7DE9
:10157800077F6F777C395E79713D76060E76380085
:10158800543F7367506D783E3E00766E5B004001B5
:101598000000000A00000064000000E803000010DA
:1015A800270000A086010040420F008096980000A6
:1015B800E1F50500CA9A3B0000000084025402B419
:1015C8000228024C02380229025365702031332068
:0E15D800323031370030303A31363A32350099
:107800000C94343C0C94513C0C94513C0C94513CE1
:107810000C94513C0C94513C0C94513C0C94513CB4
:107820000C94513C0C94513C0C94513C0C94513CA4
:107830000C94513C0C94513C0C94513C0C94513C94
:107840000C94513C0C94513C0C94513C0C94513C84
:107850000C94513C0C94513C0C94513C0C94513C74
:107860000C94513C0C94513C11241FBECFEFD8E036
:10787000DEBFCDBF11E0A0E0B1E0ECE9FFE702C060
:1078800005900D92A230B107D9F712E0A2E0B1E065
:1078900001C01D92AD30B107E1F70E942D3D0C945F
:1078A000CC3F0C94003C982F959595959595959582
:1078B000905D8F708A307CF0282F295A8091C0000B
:1078C00085FFFCCF9093C6008091C00085FFFCCF60
:1078D0002093C6000895282F205DF0CF982F809127
:1078E000C00085FFFCCF9093C6000895EF92FF92F1
:1078F0000F931F93EE24FF2487018091C00087FD22
:1079000017C00894E11CF11C011D111D81E4E8164B
:1079100082E4F8068FE0080780E0180770F3E09132
:107920000401F091050109958091C00087FFE9CF1E
:107930008091C6001F910F91FF90EF9008950E94D3
:10794000763C982F8091C00085FFFCCF9093C600B5
:1079500091362CF490330CF09053892F089597555D
:10796000892F08951F930E949F3C182F0E949F3CCF
:107970001295107F810F1F9108951F93182F882350
:1079800021F00E94763C1150E1F71F9108951F935A
:10799000182F0E94763C803249F0809103018F5F5E
:1079A000809303018530C1F01F9108958091C0003C
:1079B00085FFFCCF84E18093C6008091C00085FFE5
:1079C000FCCF1093C6008091C00085FFFCCF80E102
:1079D0008093C6001F910895E0910401F091050184
:1079E00009951F9108950E94763C803241F0809164
:1079F00003018F5F80930301853081F008958091AA
:107A0000C00085FFFCCF84E18093C6008091C00058
:107A100085FFFCCF80E18093C6000895E0910401CA
:107A2000F09105010995089540E951E08823A1F0FE
:107A30002D9A28EE33E0FA013197F1F721503040CA
:107A4000D1F72D9828EE33E0FA013197F1F7215064
:107A50003040D1F7815061F708953F924F925F9285
:107A60006F927F928F929F92AF92BF92CF92DF924E
:107A7000EF92FF920F931F93CF93DF93000080E16B
:107A80008093C4001092C50088E18093C10086E015
:107A90008093C2005098589A259A81E00E94143D24
:107AA00024E1F22E9EE1E92E85E9D82E0FE0C02ECA
:107AB00010E1B12EAA24A394B1E49B2EA6E58A2E50
:107AC000F2E57F2EE0E26E2E79E4572E63E5462E36
:107AD00050E5352E0E94763C8033B1F18133B9F107
:107AE000803409F46FC0813409F476C0823409F41B
:107AF00085C0853409F488C0803531F1823521F1A3
:107B0000813511F1853509F485C0863509F48DC0BC
:107B1000843609F496C0843709F403C1853709F423
:107B200072C1863709F466C0809103018F5F80932C
:107B30000301853079F6E0910401F0910501099582
:107B40000E94763C803351F60E94F33CC3CF0E94E2
:107B5000763C803249F78091C00085FFFCCFF092DF
:107B6000C6008091C00085FFFCCF9092C600809136
:107B7000C00085FFFCCF8092C6008091C00085FFC9
:107B8000FCCF7092C6008091C00085FFFCCF609250
:107B9000C6008091C00085FFFCCF5092C600809146
:107BA000C00085FFFCCF4092C6008091C00085FFD9
:107BB000FCCF3092C6008091C00085FFFCCFB09210
:107BC000C60088CF0E94763C863808F4BDCF0E945C
:107BD000763C0E94F33C7ECF0E94763C803809F4CC
:107BE0009CC0813809F40BC1823809F43CC1883942
:107BF00009F48FC080E00E94C73C6CCF84E10E94F2
:107C0000BD3C0E94F33C66CF85E00E94BD3C0E94D3
:107C1000F33C60CF0E94763C809306010E94763C44
:107C2000809307010E94F33C55CF0E94763C80333D
:107C300009F41DC183E00E94BD3C80E00E94C73C66
:107C400049CF0E94763C809309020E94763C809343
:107C5000080280910C028E7F80930C020E94763C79
:107C6000853409F415C18091080290910902892B8D
:107C700089F000E010E00E94763CF801E85FFE4FDA
:107C800080830F5F1F4F80910802909109020817AF
:107C9000190788F30E94763C803209F045CF809125
:107CA0000C0280FF01C16091060170910701660F0F
:107CB000771F7093070160930601A0910802B091AD
:107CC00009021097C9F0E8E0F1E09B01AD014E0F09
:107CD0005F1FF999FECF32BD21BD819180BDFA9A17
:107CE000F99A2F5F3F4FE417F50799F76A0F7B1F4B
:107CF00070930701609306018091C00085FFFCCF5F
:107D0000F092C6008091C00085FFFCCFB092C60003
:107D1000E1CE83E00E94C73CDDCE82E00E94C73CFA
:107D2000D9CE0E94763C809309020E94763C8093D3
:107D300008028091060190910701880F991F909386
:107D40000701809306010E94763C853409F4A6C0A1
:107D500080910C028E7F80930C020E94763C8032D0
:107D600009F0B8CE8091C00085FFFCCFF092C6002C
:107D7000609108027091090261157105B9F140E046
:107D800050E080910C02A82FA170B82FB27011C0E2
:107D9000BB2309F45CC0E0910601F0910701319624
:107DA000F0930701E09306014F5F5F4F46175707B7
:107DB000E8F4AA2369F3F999FECF209106013091E6
:107DC000070132BD21BDF89A90B58091C00085FFB2
:107DD000FCCF9093C6002F5F3F4F30930701209355
:107DE00006014F5F5F4F4617570718F38091C00099
:107DF00085FDE5CE8091C00085FFF8CFE0CE81E023
:107E00000E94C73C67CE0E94763C803209F08CCE3F
:107E10008091C00085FFFCCFF092C6008091C00029
:107E200085FFFCCFE092C6008091C00085FFFCCFAB
:107E3000D092C6008091C00085FFFCCFC092C600E2
:107E40008091C00085FFFCCFB092C60043CEE09188
:107E50000601F091070194918091C00085FFFCCF4D
:107E60009093C6009CCF80E10E94C73C33CE0E9415
:107E7000763C0E94763C182F0E94763C112309F430
:107E800083C0113009F484C08FE00E94C73C22CE29
:107E900080910C02816080930C02E5CE80910C02EF
:107EA000816080930C0259CF809107018823880F4D
:107EB000880B8A2180930B02809106019091070123
:107EC000880F991F90930701809306018091080203
:107ED00080FF09C080910802909109020196909359
:107EE000090280930802F894F999FECF1127E091D6
:107EF0000601F0910701C8E0D1E08091080290915D
:107F00000902103091F40091570001700130D9F34B
:107F100003E000935700E89500915700017001308D
:107F2000D9F301E100935700E89509901990009169
:107F3000570001700130D9F301E000935700E89534
:107F40001395103498F011270091570001700130FB
:107F5000D9F305E000935700E895009157000170B0
:107F60000130D9F301E100935700E895329602976A
:107F700009F0C7CF103011F00296E5CF112480919F
:107F8000C00085FFB9CEBCCE8EE10E94C73CA2CD19
:0C7F900085E90E94C73C9ECDF894FFCF0D
:027F9C00800063
:040000030000780081
:00000001FF
